{
  "contractName": "Citizen",
  "abi": [
    {
      "anonymous": false,
      "inputs": [
        {
          "indexed": false,
          "internalType": "bool",
          "name": "exists",
          "type": "bool"
        }
      ],
      "name": "AddressExists",
      "type": "event"
    },
    {
      "anonymous": false,
      "inputs": [
        {
          "indexed": false,
          "internalType": "bool",
          "name": "result",
          "type": "bool"
        }
      ],
      "name": "IsSuccessful",
      "type": "event"
    },
    {
      "inputs": [
        {
          "internalType": "address",
          "name": "",
          "type": "address"
        }
      ],
      "name": "citizenList",
      "outputs": [
        {
          "internalType": "address",
          "name": "walletAddress",
          "type": "address"
        },
        {
          "internalType": "string",
          "name": "fullName",
          "type": "string"
        },
        {
          "internalType": "uint256",
          "name": "ssn",
          "type": "uint256"
        },
        {
          "internalType": "uint256",
          "name": "tin",
          "type": "uint256"
        },
        {
          "internalType": "string",
          "name": "dob",
          "type": "string"
        },
        {
          "internalType": "uint256",
          "name": "mobile",
          "type": "uint256"
        },
        {
          "internalType": "string",
          "name": "email",
          "type": "string"
        },
        {
          "internalType": "string",
          "name": "homeAddress",
          "type": "string"
        },
        {
          "internalType": "address",
          "name": "issuedBy",
          "type": "address"
        },
        {
          "internalType": "string",
          "name": "idHash",
          "type": "string"
        }
      ],
      "stateMutability": "view",
      "type": "function",
      "constant": true
    },
    {
      "inputs": [
        {
          "internalType": "address",
          "name": "",
          "type": "address"
        },
        {
          "internalType": "uint256",
          "name": "",
          "type": "uint256"
        }
      ],
      "name": "records",
      "outputs": [
        {
          "internalType": "string",
          "name": "createdByName",
          "type": "string"
        },
        {
          "internalType": "address",
          "name": "createdByAddress",
          "type": "address"
        },
        {
          "internalType": "string",
          "name": "recordName",
          "type": "string"
        },
        {
          "internalType": "string",
          "name": "doctorName",
          "type": "string"
        },
        {
          "internalType": "string",
          "name": "treatmentType",
          "type": "string"
        },
        {
          "internalType": "string",
          "name": "treatment",
          "type": "string"
        },
        {
          "internalType": "string",
          "name": "dateAdded",
          "type": "string"
        },
        {
          "internalType": "string",
          "name": "nextAppointment",
          "type": "string"
        },
        {
          "internalType": "uint256",
          "name": "treatmentStatus",
          "type": "uint256"
        }
      ],
      "stateMutability": "view",
      "type": "function",
      "constant": true
    },
    {
      "inputs": [
        {
          "internalType": "address",
          "name": "_walletAddress",
          "type": "address"
        },
        {
          "internalType": "string",
          "name": "_fullName",
          "type": "string"
        },
        {
          "internalType": "uint256",
          "name": "_ssn",
          "type": "uint256"
        },
        {
          "internalType": "uint256",
          "name": "_tin",
          "type": "uint256"
        },
        {
          "internalType": "string",
          "name": "_dob",
          "type": "string"
        },
        {
          "internalType": "uint256",
          "name": "_mobile",
          "type": "uint256"
        },
        {
          "internalType": "string",
          "name": "_email",
          "type": "string"
        },
        {
          "internalType": "string",
          "name": "_homeAddress",
          "type": "string"
        },
        {
          "internalType": "address",
          "name": "_issuedBy",
          "type": "address"
        }
      ],
      "name": "addCitizenInfo",
      "outputs": [],
      "stateMutability": "nonpayable",
      "type": "function"
    },
    {
      "inputs": [
        {
          "internalType": "address",
          "name": "_walletAddress",
          "type": "address"
        },
        {
          "internalType": "string",
          "name": "_idHash",
          "type": "string"
        }
      ],
      "name": "setIdHash",
      "outputs": [],
      "stateMutability": "nonpayable",
      "type": "function"
    },
    {
      "inputs": [
        {
          "internalType": "address",
          "name": "_walletAddress",
          "type": "address"
        },
        {
          "internalType": "string",
          "name": "_createdByName",
          "type": "string"
        },
        {
          "internalType": "address",
          "name": "_createdByAddress",
          "type": "address"
        },
        {
          "internalType": "string",
          "name": "_recordName",
          "type": "string"
        },
        {
          "internalType": "string",
          "name": "_doctorName",
          "type": "string"
        },
        {
          "internalType": "string",
          "name": "_treatmentType",
          "type": "string"
        },
        {
          "internalType": "string",
          "name": "_treatment",
          "type": "string"
        },
        {
          "internalType": "string",
          "name": "_dateAdded",
          "type": "string"
        },
        {
          "internalType": "string",
          "name": "_nextAppointment",
          "type": "string"
        },
        {
          "internalType": "uint256",
          "name": "_treatmentStatus",
          "type": "uint256"
        }
      ],
      "name": "addRecord",
      "outputs": [],
      "stateMutability": "nonpayable",
      "type": "function"
    },
    {
      "inputs": [
        {
          "internalType": "address",
          "name": "_walletAddress",
          "type": "address"
        },
        {
          "internalType": "uint256",
          "name": "_recordId",
          "type": "uint256"
        }
      ],
      "name": "viewRecordExpanded",
      "outputs": [
        {
          "internalType": "string",
          "name": "",
          "type": "string"
        },
        {
          "internalType": "address",
          "name": "",
          "type": "address"
        },
        {
          "internalType": "string",
          "name": "",
          "type": "string"
        },
        {
          "internalType": "string",
          "name": "",
          "type": "string"
        },
        {
          "internalType": "string",
          "name": "",
          "type": "string"
        },
        {
          "internalType": "string",
          "name": "",
          "type": "string"
        },
        {
          "internalType": "string",
          "name": "",
          "type": "string"
        },
        {
          "internalType": "string",
          "name": "",
          "type": "string"
        },
        {
          "internalType": "uint256",
          "name": "",
          "type": "uint256"
        }
      ],
      "stateMutability": "view",
      "type": "function",
      "constant": true
    },
    {
      "inputs": [
        {
          "internalType": "address",
          "name": "_walletAddress",
          "type": "address"
        },
        {
          "internalType": "uint256",
          "name": "_recordId",
          "type": "uint256"
        }
      ],
      "name": "viewRecordCollapsed",
      "outputs": [
        {
          "internalType": "string",
          "name": "",
          "type": "string"
        },
        {
          "internalType": "string",
          "name": "",
          "type": "string"
        },
        {
          "internalType": "string",
          "name": "",
          "type": "string"
        },
        {
          "internalType": "uint256",
          "name": "",
          "type": "uint256"
        }
      ],
      "stateMutability": "view",
      "type": "function",
      "constant": true
    },
    {
      "inputs": [
        {
          "internalType": "address",
          "name": "_walletAddress",
          "type": "address"
        }
      ],
      "name": "recordLength",
      "outputs": [
        {
          "internalType": "uint256",
          "name": "",
          "type": "uint256"
        }
      ],
      "stateMutability": "view",
      "type": "function",
      "constant": true
    },
    {
      "inputs": [
        {
          "internalType": "address",
          "name": "_walletAddress",
          "type": "address"
        },
        {
          "internalType": "uint256",
          "name": "_recordId",
          "type": "uint256"
        },
        {
          "internalType": "string",
          "name": "_treatment",
          "type": "string"
        },
        {
          "internalType": "string",
          "name": "_nextAppointment",
          "type": "string"
        },
        {
          "internalType": "uint256",
          "name": "_treatmentStatus",
          "type": "uint256"
        }
      ],
      "name": "updateRecord",
      "outputs": [],
      "stateMutability": "nonpayable",
      "type": "function"
    },
    {
      "inputs": [
        {
          "internalType": "address",
          "name": "_walletAddress",
          "type": "address"
        },
        {
          "internalType": "uint256",
          "name": "_recordId",
          "type": "uint256"
        },
        {
          "internalType": "uint256",
          "name": "_treatmentStatus",
          "type": "uint256"
        }
      ],
      "name": "endTreatment",
      "outputs": [],
      "stateMutability": "nonpayable",
      "type": "function"
    }
  ],
  "bytecode": "0x608060405234801561001057600080fd5b50611f01806100206000396000f3fe608060405234801561001057600080fd5b506004361061009e5760003560e01c8063df9dda4811610066578063df9dda4814610148578063e19975a31461015b578063e4a19cb014610192578063e5d4a484146101a5578063ff5d6c82146101b857600080fd5b80631dce8cc2146100a357806344522e3f146100b857806382a6c0ac146100ea5780639d3e9faa14610112578063c939fb9d14610125575b600080fd5b6100b66100b13660046118e6565b6101cb565b005b6100cb6100c63660046119d2565b610394565b6040516100e19a99989796959493929190611a41565b60405180910390f35b6100fd6100f8366004611ae4565b6106a2565b6040516100e199989796959493929190611b0e565b6100b6610120366004611bc1565b610ad4565b610138610133366004611ae4565b610b45565b6040516100e19493929190611bf4565b6100b6610156366004611c3f565b610fe5565b6101846101693660046119d2565b6001600160a01b031660009081526001602052604090205490565b6040519081526020016100e1565b6100b66101a0366004611cc5565b6110fc565b6100b66101b3366004611e0d565b61128d565b6100fd6101c6366004611ae4565b6112bf565b6001600160a01b03808a166000818152602081905260409020549091161461035457604051600081527f1449a2d4ef90bf92e0e53cf7388679c245c8b4ecc816d28d47e8f899a855d26d9060200160405180910390a16001600160a01b03891660008181526020818152604090912080546001600160a01b0319169092178255895161025d92600101918b019061178e565b506001600160a01b038916600090815260208181526040909120600281018990556003810188905586516102999260049092019188019061178e565b506001600160a01b0389166000908152602081815260409091206005810186905584516102ce9260069092019186019061178e565b506001600160a01b03891660009081526020818152604090912083516102fc9260079092019185019061178e565b506001600160a01b038981166000908152602081815260409182902060080180546001600160a01b031916938516939093179092555160018152600080516020611eac833981519152910160405180910390a1610389565b604051600181527f1449a2d4ef90bf92e0e53cf7388679c245c8b4ecc816d28d47e8f899a855d26d9060200160405180910390a15b505050505050505050565b600060208190529081526040902080546001820180546001600160a01b0390921692916103c090611e5b565b80601f01602080910402602001604051908101604052809291908181526020018280546103ec90611e5b565b80156104395780601f1061040e57610100808354040283529160200191610439565b820191906000526020600020905b81548152906001019060200180831161041c57829003601f168201915b50505050509080600201549080600301549080600401805461045a90611e5b565b80601f016020809104026020016040519081016040528092919081815260200182805461048690611e5b565b80156104d35780601f106104a8576101008083540402835291602001916104d3565b820191906000526020600020905b8154815290600101906020018083116104b657829003601f168201915b5050505050908060050154908060060180546104ee90611e5b565b80601f016020809104026020016040519081016040528092919081815260200182805461051a90611e5b565b80156105675780601f1061053c57610100808354040283529160200191610567565b820191906000526020600020905b81548152906001019060200180831161054a57829003601f168201915b50505050509080600701805461057c90611e5b565b80601f01602080910402602001604051908101604052809291908181526020018280546105a890611e5b565b80156105f55780601f106105ca576101008083540402835291602001916105f5565b820191906000526020600020905b8154815290600101906020018083116105d857829003601f168201915b505050600884015460098501805494956001600160a01b0390921694919350915061061f90611e5b565b80601f016020809104026020016040519081016040528092919081815260200182805461064b90611e5b565b80156106985780601f1061066d57610100808354040283529160200191610698565b820191906000526020600020905b81548152906001019060200180831161067b57829003601f168201915b505050505090508a565b600160205281600052604060002081815481106106be57600080fd5b9060005260206000209060090201600091509150508060000180546106e290611e5b565b80601f016020809104026020016040519081016040528092919081815260200182805461070e90611e5b565b801561075b5780601f106107305761010080835404028352916020019161075b565b820191906000526020600020905b81548152906001019060200180831161073e57829003601f168201915b505050600184015460028501805494956001600160a01b0390921694919350915061078590611e5b565b80601f01602080910402602001604051908101604052809291908181526020018280546107b190611e5b565b80156107fe5780601f106107d3576101008083540402835291602001916107fe565b820191906000526020600020905b8154815290600101906020018083116107e157829003601f168201915b50505050509080600301805461081390611e5b565b80601f016020809104026020016040519081016040528092919081815260200182805461083f90611e5b565b801561088c5780601f106108615761010080835404028352916020019161088c565b820191906000526020600020905b81548152906001019060200180831161086f57829003601f168201915b5050505050908060040180546108a190611e5b565b80601f01602080910402602001604051908101604052809291908181526020018280546108cd90611e5b565b801561091a5780601f106108ef5761010080835404028352916020019161091a565b820191906000526020600020905b8154815290600101906020018083116108fd57829003601f168201915b50505050509080600501805461092f90611e5b565b80601f016020809104026020016040519081016040528092919081815260200182805461095b90611e5b565b80156109a85780601f1061097d576101008083540402835291602001916109a8565b820191906000526020600020905b81548152906001019060200180831161098b57829003601f168201915b5050505050908060060180546109bd90611e5b565b80601f01602080910402602001604051908101604052809291908181526020018280546109e990611e5b565b8015610a365780601f10610a0b57610100808354040283529160200191610a36565b820191906000526020600020905b815481529060010190602001808311610a1957829003601f168201915b505050505090806007018054610a4b90611e5b565b80601f0160208091040260200160405190810160405280929190818152602001828054610a7790611e5b565b8015610ac45780601f10610a9957610100808354040283529160200191610ac4565b820191906000526020600020905b815481529060010190602001808311610aa757829003601f168201915b5050505050908060080154905089565b6001600160a01b0383166000908152600160205260409020805482919084908110610b0157610b01611e95565b906000526020600020906009020160080181905550600080516020611eac8339815191526001604051610b38911515815260200190565b60405180910390a1505050565b606080606060008060016000886001600160a01b03166001600160a01b031681526020019081526020016000208681548110610b8357610b83611e95565b906000526020600020906009020160405180610120016040529081600082018054610bad90611e5b565b80601f0160208091040260200160405190810160405280929190818152602001828054610bd990611e5b565b8015610c265780601f10610bfb57610100808354040283529160200191610c26565b820191906000526020600020905b815481529060010190602001808311610c0957829003601f168201915b505050918352505060018201546001600160a01b03166020820152600282018054604090920191610c5690611e5b565b80601f0160208091040260200160405190810160405280929190818152602001828054610c8290611e5b565b8015610ccf5780601f10610ca457610100808354040283529160200191610ccf565b820191906000526020600020905b815481529060010190602001808311610cb257829003601f168201915b50505050508152602001600382018054610ce890611e5b565b80601f0160208091040260200160405190810160405280929190818152602001828054610d1490611e5b565b8015610d615780601f10610d3657610100808354040283529160200191610d61565b820191906000526020600020905b815481529060010190602001808311610d4457829003601f168201915b50505050508152602001600482018054610d7a90611e5b565b80601f0160208091040260200160405190810160405280929190818152602001828054610da690611e5b565b8015610df35780601f10610dc857610100808354040283529160200191610df3565b820191906000526020600020905b815481529060010190602001808311610dd657829003601f168201915b50505050508152602001600582018054610e0c90611e5b565b80601f0160208091040260200160405190810160405280929190818152602001828054610e3890611e5b565b8015610e855780601f10610e5a57610100808354040283529160200191610e85565b820191906000526020600020905b815481529060010190602001808311610e6857829003601f168201915b50505050508152602001600682018054610e9e90611e5b565b80601f0160208091040260200160405190810160405280929190818152602001828054610eca90611e5b565b8015610f175780601f10610eec57610100808354040283529160200191610f17565b820191906000526020600020905b815481529060010190602001808311610efa57829003601f168201915b50505050508152602001600782018054610f3090611e5b565b80601f0160208091040260200160405190810160405280929190818152602001828054610f5c90611e5b565b8015610fa95780601f10610f7e57610100808354040283529160200191610fa9565b820191906000526020600020905b815481529060010190602001808311610f8c57829003601f168201915b505050505081526020016008820154815250509050806040015181608001518260c0015183610100015194509450945094505092959194509250565b6001600160a01b038516600090815260016020526040902080548491908690811061101257611012611e95565b9060005260206000209060090201600501908051906020019061103692919061178e565b506001600160a01b038516600090815260016020526040902080548391908690811061106457611064611e95565b9060005260206000209060090201600701908051906020019061108892919061178e565b506001600160a01b03851660009081526001602052604090208054829190869081106110b6576110b6611e95565b906000526020600020906009020160080181905550600080516020611eac83398151915260016040516110ed911515815260200190565b60405180910390a15050505050565b6001600160a01b03808b1660009081526001602081815260408084208151610120810183528f8152958e16868401529085018c9052606085018b9052608085018a905260a0850189905260c0850188905260e08501879052610100850186905280549283018155835291829020835180516009909302909101926111859284929091019061178e565b506020828101516001830180546001600160a01b0319166001600160a01b03909216919091179055604083015180516111c4926002850192019061178e565b50606082015180516111e091600384019160209091019061178e565b50608082015180516111fc91600484019160209091019061178e565b5060a0820151805161121891600584019160209091019061178e565b5060c0820151805161123491600684019160209091019061178e565b5060e0820151805161125091600784019160209091019061178e565b50610100919091015160089091015560405160018152600080516020611eac8339815191529060200160405180910390a150505050505050505050565b6001600160a01b03821660009081526020818152604090912082516112ba9260099092019184019061178e565b505050565b60606000606080606080606080600080600160008d6001600160a01b03166001600160a01b031681526020019081526020016000208b8154811061130557611305611e95565b90600052602060002090600902016040518061012001604052908160008201805461132f90611e5b565b80601f016020809104026020016040519081016040528092919081815260200182805461135b90611e5b565b80156113a85780601f1061137d576101008083540402835291602001916113a8565b820191906000526020600020905b81548152906001019060200180831161138b57829003601f168201915b505050918352505060018201546001600160a01b031660208201526002820180546040909201916113d890611e5b565b80601f016020809104026020016040519081016040528092919081815260200182805461140490611e5b565b80156114515780601f1061142657610100808354040283529160200191611451565b820191906000526020600020905b81548152906001019060200180831161143457829003601f168201915b5050505050815260200160038201805461146a90611e5b565b80601f016020809104026020016040519081016040528092919081815260200182805461149690611e5b565b80156114e35780601f106114b8576101008083540402835291602001916114e3565b820191906000526020600020905b8154815290600101906020018083116114c657829003601f168201915b505050505081526020016004820180546114fc90611e5b565b80601f016020809104026020016040519081016040528092919081815260200182805461152890611e5b565b80156115755780601f1061154a57610100808354040283529160200191611575565b820191906000526020600020905b81548152906001019060200180831161155857829003601f168201915b5050505050815260200160058201805461158e90611e5b565b80601f01602080910402602001604051908101604052809291908181526020018280546115ba90611e5b565b80156116075780601f106115dc57610100808354040283529160200191611607565b820191906000526020600020905b8154815290600101906020018083116115ea57829003601f168201915b5050505050815260200160068201805461162090611e5b565b80601f016020809104026020016040519081016040528092919081815260200182805461164c90611e5b565b80156116995780601f1061166e57610100808354040283529160200191611699565b820191906000526020600020905b81548152906001019060200180831161167c57829003601f168201915b505050505081526020016007820180546116b290611e5b565b80601f01602080910402602001604051908101604052809291908181526020018280546116de90611e5b565b801561172b5780601f106117005761010080835404028352916020019161172b565b820191906000526020600020905b81548152906001019060200180831161170e57829003601f168201915b505050505081526020016008820154815250509050806000015181602001518260400151836060015184608001518560a001518660c001518760e00151886101000151995099509950995099509950995099509950509295985092959850929598565b82805461179a90611e5b565b90600052602060002090601f0160209004810192826117bc5760008555611802565b82601f106117d557805160ff1916838001178555611802565b82800160010185558215611802579182015b828111156118025782518255916020019190600101906117e7565b5061180e929150611812565b5090565b5b8082111561180e5760008155600101611813565b80356001600160a01b038116811461183e57600080fd5b919050565b634e487b7160e01b600052604160045260246000fd5b600082601f83011261186a57600080fd5b813567ffffffffffffffff8082111561188557611885611843565b604051601f8301601f19908116603f011681019082821181831017156118ad576118ad611843565b816040528381528660208588010111156118c657600080fd5b836020870160208301376000602085830101528094505050505092915050565b60008060008060008060008060006101208a8c03121561190557600080fd5b61190e8a611827565b985060208a013567ffffffffffffffff8082111561192b57600080fd5b6119378d838e01611859565b995060408c0135985060608c0135975060808c013591508082111561195b57600080fd5b6119678d838e01611859565b965060a08c0135955060c08c013591508082111561198457600080fd5b6119908d838e01611859565b945060e08c01359150808211156119a657600080fd5b506119b38c828d01611859565b9250506119c36101008b01611827565b90509295985092959850929598565b6000602082840312156119e457600080fd5b6119ed82611827565b9392505050565b6000815180845260005b81811015611a1a576020818501810151868301820152016119fe565b81811115611a2c576000602083870101525b50601f01601f19169290920160200192915050565b6001600160a01b038b8116825261014060208301819052600091611a678483018e6119f4565b91508b60408501528a60608501528382036080850152611a87828b6119f4565b91508860a085015283820360c0850152611aa182896119f4565b915083820360e0850152611ab582886119f4565b9086166101008501528381036101208501529050611ad381856119f4565b9d9c50505050505050505050505050565b60008060408385031215611af757600080fd5b611b0083611827565b946020939093013593505050565b6000610120808352611b228184018d6119f4565b6001600160a01b038c16602085015283810360408501529050611b45818b6119f4565b90508281036060840152611b59818a6119f4565b90508281036080840152611b6d81896119f4565b905082810360a0840152611b8181886119f4565b905082810360c0840152611b9581876119f4565b905082810360e0840152611ba981866119f4565b915050826101008301529a9950505050505050505050565b600080600060608486031215611bd657600080fd5b611bdf84611827565b95602085013595506040909401359392505050565b608081526000611c0760808301876119f4565b8281036020840152611c1981876119f4565b90508281036040840152611c2d81866119f4565b91505082606083015295945050505050565b600080600080600060a08688031215611c5757600080fd5b611c6086611827565b945060208601359350604086013567ffffffffffffffff80821115611c8457600080fd5b611c9089838a01611859565b94506060880135915080821115611ca657600080fd5b50611cb388828901611859565b95989497509295608001359392505050565b6000806000806000806000806000806101408b8d031215611ce557600080fd5b611cee8b611827565b995060208b013567ffffffffffffffff80821115611d0b57600080fd5b611d178e838f01611859565b9a50611d2560408e01611827565b995060608d0135915080821115611d3b57600080fd5b611d478e838f01611859565b985060808d0135915080821115611d5d57600080fd5b611d698e838f01611859565b975060a08d0135915080821115611d7f57600080fd5b611d8b8e838f01611859565b965060c08d0135915080821115611da157600080fd5b611dad8e838f01611859565b955060e08d0135915080821115611dc357600080fd5b611dcf8e838f01611859565b94506101008d0135915080821115611de657600080fd5b50611df38d828e01611859565b9250506101208b013590509295989b9194979a5092959850565b60008060408385031215611e2057600080fd5b611e2983611827565b9150602083013567ffffffffffffffff811115611e4557600080fd5b611e5185828601611859565b9150509250929050565b600181811c90821680611e6f57607f821691505b602082108103611e8f57634e487b7160e01b600052602260045260246000fd5b50919050565b634e487b7160e01b600052603260045260246000fdfe1aa27be1ef91eecc7cde7d46499e18fa3c5f5baaa5e2c3bb507fd916e319fb0aa2646970667358221220101587ddfb3626630f8e8e652c9b2c2ee13ae51c6e58f0ce17e6dfbc1e0941e564736f6c634300080d0033",
  "immutableReferences": {},
  "source": "// SPDX-License-Identifier: MIT\npragma solidity ^0.8.13;\n\n//import \"./Ownable.sol\";\n\ncontract Citizen {\n\n    //Structs\n    struct CitizenInfo {\n        address walletAddress;\n        string fullName;\n        uint ssn;\n        uint tin;\n        string dob;\n        uint mobile;\n        string email;       \n        string homeAddress;\n        address issuedBy;\n        string idHash;\n    }  \n\n    struct MedicalRecord {\n        string createdByName;\n        address createdByAddress;\n        string recordName;\n        string doctorName;\n        string treatmentType;\n        string treatment;\n        string dateAdded;\n        string nextAppointment;\n        uint treatmentStatus; //1 ongoing - 2 ended\n    }\n\n    //Mappings\n    mapping(address => CitizenInfo) public citizenList;\n    mapping(address => MedicalRecord[]) public records;\n\n    //Events\n    event IsSuccessful(bool result);\n    event AddressExists(bool exists);\n\n    //Citizen Functions\n    function addCitizenInfo (address _walletAddress, string memory _fullName, uint _ssn, uint _tin, string memory _dob, uint _mobile, string memory _email, string memory _homeAddress, address _issuedBy) public {       \n        if (citizenList[_walletAddress].walletAddress != _walletAddress) {\n            emit AddressExists(false);\n            citizenList[_walletAddress].walletAddress = _walletAddress;\n            citizenList[_walletAddress].fullName = _fullName;\n            citizenList[_walletAddress].ssn = _ssn;\n            citizenList[_walletAddress].tin = _tin;\n            citizenList[_walletAddress].dob = _dob;\n            citizenList[_walletAddress].mobile = _mobile;\n            citizenList[_walletAddress].email = _email;\n            citizenList[_walletAddress].homeAddress = _homeAddress;\n            citizenList[_walletAddress].issuedBy = _issuedBy;\n            emit IsSuccessful(true); \n        } else {\n            emit AddressExists(true);\n        }       \n    }\n\n    function setIdHash(address _walletAddress, string memory _idHash) public {\n        citizenList[_walletAddress].idHash = _idHash;        \n    }\n\n    //Record Functions\n    function addRecord (address _walletAddress, string memory _createdByName, address _createdByAddress, string memory _recordName, string memory _doctorName, string memory _treatmentType, string memory _treatment, string memory _dateAdded, string memory _nextAppointment, uint _treatmentStatus) public {\n        records[_walletAddress].push(MedicalRecord(_createdByName, _createdByAddress, _recordName, _doctorName, _treatmentType, _treatment, _dateAdded, _nextAppointment, _treatmentStatus));\n        emit IsSuccessful(true);\n    }\n\n    function viewRecordExpanded(address _walletAddress, uint _recordId) public view returns(string memory, address, string memory, string memory, string memory, string memory, string memory, string memory, uint) {\n        MedicalRecord memory thisRecord = records[_walletAddress][_recordId];\n        return (thisRecord.createdByName, thisRecord.createdByAddress, thisRecord.recordName, thisRecord.doctorName, thisRecord.treatmentType, thisRecord.treatment, thisRecord.dateAdded, thisRecord.nextAppointment, thisRecord.treatmentStatus);\n    }\n\n    function viewRecordCollapsed(address _walletAddress, uint _recordId) public view returns (string memory, string memory, string memory, uint) {\n        MedicalRecord memory thisRecord = records[_walletAddress][_recordId];\n        return (thisRecord.recordName, thisRecord.treatmentType, thisRecord.dateAdded, thisRecord.treatmentStatus);\n    }\n\n    function recordLength(address _walletAddress) public view returns(uint) {\n        return records[_walletAddress].length;\n    }\n\n    function updateRecord(address _walletAddress, uint _recordId, string memory _treatment, string memory _nextAppointment, uint _treatmentStatus) public {\n        records[_walletAddress][_recordId].treatment = _treatment;\n        records[_walletAddress][_recordId].nextAppointment = _nextAppointment;\n        records[_walletAddress][_recordId].treatmentStatus = _treatmentStatus;\n        emit IsSuccessful(true);\n    }\n\n    function endTreatment(address _walletAddress, uint _recordId, uint _treatmentStatus) public {\n        records[_walletAddress][_recordId].treatmentStatus = _treatmentStatus;\n        emit IsSuccessful(true);\n    }\n}",
  "sourcePath": "/Users/tokristo/Documents/Node/  /authentication/contracts/Citizen.sol",
  "compiler": {
    "name": "solc",
    "version": "0.8.13+commit.abaa5c0e.Emscripten.clang"
  },
  "schemaVersion": "3.4.6",
  "updatedAt": "2022-06-10T11:12:48.931Z",
  "networkType": "ethereum",
  "devdoc": {
    "kind": "dev",
    "methods": {},
    "version": 1
  },
  "userdoc": {
    "kind": "user",
    "methods": {},
    "version": 1
  }
}