{
  "contractName": "Issuer",
  "abi": [
    {
      "inputs": [
        {
          "internalType": "address",
          "name": "",
          "type": "address"
        }
      ],
      "name": "citizenList",
      "outputs": [
        {
          "internalType": "address",
          "name": "walletAddress",
          "type": "address"
        },
        {
          "internalType": "bytes",
          "name": "idHash",
          "type": "bytes"
        }
      ],
      "stateMutability": "view",
      "type": "function",
      "constant": true
    },
    {
      "inputs": [
        {
          "internalType": "address",
          "name": "",
          "type": "address"
        }
      ],
      "name": "hospitalList",
      "outputs": [
        {
          "internalType": "address",
          "name": "hospitalAddress",
          "type": "address"
        },
        {
          "internalType": "bytes",
          "name": "hospitalHash",
          "type": "bytes"
        }
      ],
      "stateMutability": "view",
      "type": "function",
      "constant": true
    },
    {
      "inputs": [
        {
          "internalType": "address",
          "name": "_walletAddress",
          "type": "address"
        },
        {
          "internalType": "bytes",
          "name": "_idHash",
          "type": "bytes"
        }
      ],
      "name": "setCitizenInfo",
      "outputs": [],
      "stateMutability": "nonpayable",
      "type": "function"
    },
    {
      "inputs": [
        {
          "internalType": "address",
          "name": "_walletAddress",
          "type": "address"
        },
        {
          "internalType": "bytes",
          "name": "_hospitalHash",
          "type": "bytes"
        }
      ],
      "name": "setHospitalInfo",
      "outputs": [],
      "stateMutability": "nonpayable",
      "type": "function"
    },
    {
      "inputs": [
        {
          "internalType": "address",
          "name": "_walletAddress",
          "type": "address"
        }
      ],
      "name": "checkExists",
      "outputs": [
        {
          "internalType": "bool",
          "name": "",
          "type": "bool"
        }
      ],
      "stateMutability": "view",
      "type": "function",
      "constant": true
    },
    {
      "inputs": [
        {
          "internalType": "address",
          "name": "_walletAddress",
          "type": "address"
        },
        {
          "internalType": "bytes",
          "name": "_idHash",
          "type": "bytes"
        }
      ],
      "name": "checkValid",
      "outputs": [
        {
          "internalType": "bool",
          "name": "",
          "type": "bool"
        }
      ],
      "stateMutability": "view",
      "type": "function",
      "constant": true
    }
  ],
  "bytecode": "0x608060405234801561001057600080fd5b50610664806100206000396000f3fe608060405234801561001057600080fd5b50600436106100625760003560e01c806344522e3f146100675780635f6cf05a146100915780635ffe0a78146100a6578063e61025cd146100b9578063ec2dd19b146100cc578063f02c3cae146100ef575b600080fd5b61007a6100753660046103d1565b610102565b604051610088929190610423565b60405180910390f35b6100a461009f36600461047b565b6101b1565b005b6100a46100b436600461047b565b6101f4565b61007a6100c73660046103d1565b610230565b6100df6100da3660046103d1565b61025d565b6040519015158152602001610088565b6100df6100fd36600461047b565b610294565b600060208190529081526040902080546001820180546001600160a01b03909216929161012e9061053d565b80601f016020809104026020016040519081016040528092919081815260200182805461015a9061053d565b80156101a75780601f1061017c576101008083540402835291602001916101a7565b820191906000526020600020905b81548152906001019060200180831161018a57829003601f168201915b5050505050905082565b6001600160a01b038216600081815260016020818152604090922080546001600160a01b031916909317835583516101ef9390910191840190610321565b505050565b6001600160a01b03821660008181526020818152604090912080546001600160a01b031916909217825582516101ef9260010191840190610321565b6001602081905260009182526040909120805491810180546001600160a01b039093169261012e9061053d565b6001600160a01b038082166000818152602081905260408120549092160361028757506001919050565b506000919050565b919050565b6001600160a01b038216600090815260208181526040808320905183926102bf926001019101610577565b6040516020818303038152906040528051906020012090506000836040516020016102ea9190610612565b6040516020818303038152906040528051906020012090508082036103145760019250505061031b565b6000925050505b92915050565b82805461032d9061053d565b90600052602060002090601f01602090048101928261034f5760008555610395565b82601f1061036857805160ff1916838001178555610395565b82800160010185558215610395579182015b8281111561039557825182559160200191906001019061037a565b506103a19291506103a5565b5090565b5b808211156103a157600081556001016103a6565b80356001600160a01b038116811461028f57600080fd5b6000602082840312156103e357600080fd5b6103ec826103ba565b9392505050565b60005b8381101561040e5781810151838201526020016103f6565b8381111561041d576000848401525b50505050565b60018060a01b038316815260406020820152600082518060408401526104508160608501602087016103f3565b601f01601f1916919091016060019392505050565b634e487b7160e01b600052604160045260246000fd5b6000806040838503121561048e57600080fd5b610497836103ba565b9150602083013567ffffffffffffffff808211156104b457600080fd5b818501915085601f8301126104c857600080fd5b8135818111156104da576104da610465565b604051601f8201601f19908116603f0116810190838211818310171561050257610502610465565b8160405282815288602084870101111561051b57600080fd5b8260208601602083013760006020848301015280955050505050509250929050565b600181811c9082168061055157607f821691505b60208210810361057157634e487b7160e01b600052602260045260246000fd5b50919050565b600080835481600182811c91508083168061059357607f831692505b602080841082036105b257634e487b7160e01b86526022600452602486fd5b8180156105c657600181146105d757610604565b60ff19861689528489019650610604565b60008a81526020902060005b868110156105fc5781548b8201529085019083016105e3565b505084890196505b509498975050505050505050565b600082516106248184602087016103f3565b919091019291505056fea2646970667358221220751cd1fc4ea60dc1abf05009e11a8be37b791dc3a151f37c63b2090322d9485c64736f6c634300080d0033",
  "immutableReferences": {},
  "source": "// SPDX-License-Identifier: MIT\npragma solidity ^0.8.13;\n\n//import \"./Ownable.sol\";\n\ncontract Issuer {\n\n    //Structs\n    struct CitizenInfo {\n        address walletAddress;\n        bytes idHash;\n    }\n\n    struct HospitalInfo {\n        address hospitalAddress;\n        bytes hospitalHash;\n    }\n\n    //Mappings\n    mapping(address => CitizenInfo) public citizenList;\n    mapping(address => HospitalInfo) public hospitalList;    \n\n    //Set Citizen and Hospital Info to the corresponding mappings\n    function setCitizenInfo(address _walletAddress, bytes memory _idHash) public {\n        citizenList[_walletAddress].walletAddress = _walletAddress;\n        citizenList[_walletAddress].idHash = _idHash;\n    }\n\n    function setHospitalInfo(address _walletAddress, bytes memory _hospitalHash) public {\n        hospitalList[_walletAddress].hospitalAddress = _walletAddress;\n        hospitalList[_walletAddress].hospitalHash = _hospitalHash;\n    }\n\n    //Citizen's wallet address existence check\n    function checkExists(address _walletAddress) public view returns(bool) {\n        if (citizenList[_walletAddress].walletAddress == _walletAddress) {\n            return true;\n        } else {\n            return false;\n        }\n    }\n\n    //Citizen's id hash validation check\n    function checkValid(address _walletAddress, bytes memory _idHash) public view returns(bool) {\n        //Explicitly converting both hashes to bytes32 for comparison\n        bytes32  citizenHash = keccak256(abi.encodePacked(citizenList[_walletAddress].idHash)); \n        bytes32  reqHash = keccak256(abi.encodePacked(_idHash));\n        if (citizenHash == reqHash) {\n            return true;\n        } else {\n            return false;\n        }\n    }\n}",
  "sourcePath": "/Users/tokristo/Documents/Node/  /authentication/contracts/Issuer.sol",
  "compiler": {
    "name": "solc",
    "version": "0.8.13+commit.abaa5c0e.Emscripten.clang"
  },
  "schemaVersion": "3.4.6",
  "updatedAt": "2022-06-10T11:12:48.914Z",
  "networkType": "ethereum",
  "devdoc": {
    "kind": "dev",
    "methods": {},
    "version": 1
  },
  "userdoc": {
    "kind": "user",
    "methods": {},
    "version": 1
  }
}