{
  "contractName": "Ownable",
  "abi": [
    {
      "inputs": [],
      "stateMutability": "nonpayable",
      "type": "constructor"
    },
    {
      "inputs": [
        {
          "internalType": "address",
          "name": "",
          "type": "address"
        }
      ],
      "name": "issuerList",
      "outputs": [
        {
          "internalType": "address",
          "name": "issuerAddress",
          "type": "address"
        },
        {
          "internalType": "string",
          "name": "issuerName",
          "type": "string"
        }
      ],
      "stateMutability": "view",
      "type": "function",
      "constant": true
    }
  ],
  "bytecode": "0x608060405234801561001057600080fd5b507f6ac3eea91b35594cf4768bf4b8676648f829a86bfa36a28b65f33371a602b25780546001600160a01b03191673d01c64e018fe9c2d3409a7fb20d00c55960500b29081179091556040805180820190915260078152664f66666963653160c81b6020828101918252600093845292909252516100af917f6ac3eea91b35594cf4768bf4b8676648f829a86bfa36a28b65f33371a602b258916100b5565b50610188565b8280546100c19061014e565b90600052602060002090601f0160209004810192826100e35760008555610129565b82601f106100fc57805160ff1916838001178555610129565b82800160010185558215610129579182015b8281111561012957825182559160200191906001019061010e565b50610135929150610139565b5090565b5b80821115610135576000815560010161013a565b600181811c9082168061016257607f821691505b60208210810361018257634e487b7160e01b600052602260045260246000fd5b50919050565b61020e806101976000396000f3fe608060405234801561001057600080fd5b506004361061002b5760003560e01c8063f359b5ed14610030575b600080fd5b61004361003e366004610109565b61005a565b604051610051929190610139565b60405180910390f35b600060208190529081526040902080546001820180546001600160a01b0390921692916100869061019e565b80601f01602080910402602001604051908101604052809291908181526020018280546100b29061019e565b80156100ff5780601f106100d4576101008083540402835291602001916100ff565b820191906000526020600020905b8154815290600101906020018083116100e257829003601f168201915b5050505050905082565b60006020828403121561011b57600080fd5b81356001600160a01b038116811461013257600080fd5b9392505050565b60018060a01b038316815260006020604081840152835180604085015260005b8181101561017557858101830151858201606001528201610159565b81811115610187576000606083870101525b50601f01601f191692909201606001949350505050565b600181811c908216806101b257607f821691505b6020821081036101d257634e487b7160e01b600052602260045260246000fd5b5091905056fea26469706673582212205df4d3854798e92dc3aba8a7c176ef60284995f54ec80e96c4f41ba1ca2f588c64736f6c634300080d0033",
  "immutableReferences": {},
  "source": "//SPDX-License-Identifier: MIT\npragma solidity ^0.8.13;\n\n//Contract used for registering an issuer's wallet address in the smart contract and restricting the excecution  \n//of certain functions from the rest of the smart contracts with the help of the modifier \"onlyIssuer\"\ncontract Ownable {\n\n    struct IssuerInfo {\n        address issuerAddress;\n        string issuerName;\n    }\n    \n    mapping(address => IssuerInfo) public issuerList;\n    \n    constructor() {\n        issuerList[0xD01c64e018Fe9C2D3409a7FB20D00C55960500b2].issuerAddress = 0xD01c64e018Fe9C2D3409a7FB20D00C55960500b2;\n        issuerList[0xD01c64e018Fe9C2D3409a7FB20D00C55960500b2].issuerName = \"Office1\";\n    }\n    \n    modifier onlyIssuer() {\n        require(issuerList[msg.sender].issuerAddress == msg.sender, \"You are not allowed\");\n        _;\n    }\n}",
  "sourcePath": "/Users/tokristo/Documents/Node/  /authentication/contracts/Ownable.sol",
  "compiler": {
    "name": "solc",
    "version": "0.8.13+commit.abaa5c0e.Emscripten.clang"
  },
  "schemaVersion": "3.4.6",
  "updatedAt": "2022-06-10T11:12:48.902Z",
  "networkType": "ethereum",
  "devdoc": {
    "kind": "dev",
    "methods": {},
    "version": 1
  },
  "userdoc": {
    "kind": "user",
    "methods": {},
    "version": 1
  }
}