{
  "contractName": "Verifier",
  "abi": [
    {
      "anonymous": false,
      "inputs": [
        {
          "indexed": false,
          "internalType": "bool",
          "name": "exists",
          "type": "bool"
        }
      ],
      "name": "AddressExists",
      "type": "event"
    },
    {
      "anonymous": false,
      "inputs": [
        {
          "indexed": false,
          "internalType": "bool",
          "name": "result",
          "type": "bool"
        }
      ],
      "name": "IsSuccessful",
      "type": "event"
    },
    {
      "inputs": [
        {
          "internalType": "address",
          "name": "",
          "type": "address"
        }
      ],
      "name": "hospitalList",
      "outputs": [
        {
          "internalType": "address",
          "name": "hospitalAddress",
          "type": "address"
        },
        {
          "internalType": "string",
          "name": "hospitalName",
          "type": "string"
        },
        {
          "internalType": "address",
          "name": "issuer",
          "type": "address"
        },
        {
          "internalType": "bytes",
          "name": "hospitalHash",
          "type": "bytes"
        }
      ],
      "stateMutability": "view",
      "type": "function",
      "constant": true
    },
    {
      "inputs": [
        {
          "internalType": "address",
          "name": "",
          "type": "address"
        },
        {
          "internalType": "uint256",
          "name": "",
          "type": "uint256"
        }
      ],
      "name": "requests",
      "outputs": [
        {
          "internalType": "string",
          "name": "requestedByName",
          "type": "string"
        },
        {
          "internalType": "address",
          "name": "requestedByAddress",
          "type": "address"
        },
        {
          "internalType": "uint256",
          "name": "citizenFullName",
          "type": "uint256"
        },
        {
          "internalType": "uint256",
          "name": "citizenSsn",
          "type": "uint256"
        },
        {
          "internalType": "uint256",
          "name": "citizenTin",
          "type": "uint256"
        },
        {
          "internalType": "uint256",
          "name": "citizenDob",
          "type": "uint256"
        },
        {
          "internalType": "uint256",
          "name": "citizenMobile",
          "type": "uint256"
        },
        {
          "internalType": "uint256",
          "name": "citizenIdIssuedBy",
          "type": "uint256"
        },
        {
          "internalType": "uint256",
          "name": "citizenIdHash",
          "type": "uint256"
        },
        {
          "internalType": "uint256",
          "name": "requestStatus",
          "type": "uint256"
        },
        {
          "internalType": "string",
          "name": "dateRequested",
          "type": "string"
        }
      ],
      "stateMutability": "view",
      "type": "function",
      "constant": true
    },
    {
      "inputs": [
        {
          "internalType": "address",
          "name": "",
          "type": "address"
        }
      ],
      "name": "requestsWaiting",
      "outputs": [
        {
          "internalType": "uint256",
          "name": "",
          "type": "uint256"
        }
      ],
      "stateMutability": "view",
      "type": "function",
      "constant": true
    },
    {
      "inputs": [
        {
          "internalType": "address",
          "name": "_hospitalAddress",
          "type": "address"
        },
        {
          "internalType": "string",
          "name": "_hospitalName",
          "type": "string"
        },
        {
          "internalType": "address",
          "name": "_issuer",
          "type": "address"
        }
      ],
      "name": "addHospital",
      "outputs": [],
      "stateMutability": "nonpayable",
      "type": "function"
    },
    {
      "inputs": [
        {
          "internalType": "address",
          "name": "_hospitalAddress",
          "type": "address"
        },
        {
          "internalType": "bytes",
          "name": "_hospitalHash",
          "type": "bytes"
        }
      ],
      "name": "setHospitalHash",
      "outputs": [],
      "stateMutability": "nonpayable",
      "type": "function"
    },
    {
      "inputs": [
        {
          "internalType": "address",
          "name": "_hospitalAddress",
          "type": "address"
        }
      ],
      "name": "getHospitalInfo",
      "outputs": [
        {
          "internalType": "address",
          "name": "",
          "type": "address"
        },
        {
          "internalType": "string",
          "name": "",
          "type": "string"
        }
      ],
      "stateMutability": "view",
      "type": "function",
      "constant": true
    },
    {
      "inputs": [
        {
          "internalType": "address",
          "name": "_hospitalAddress",
          "type": "address"
        }
      ],
      "name": "hospitalExists",
      "outputs": [
        {
          "internalType": "bool",
          "name": "",
          "type": "bool"
        }
      ],
      "stateMutability": "view",
      "type": "function",
      "constant": true
    },
    {
      "inputs": [
        {
          "internalType": "string",
          "name": "_requestedByName",
          "type": "string"
        },
        {
          "internalType": "address",
          "name": "_requestedByAddress",
          "type": "address"
        },
        {
          "internalType": "address",
          "name": "_walletAddress",
          "type": "address"
        },
        {
          "internalType": "uint256",
          "name": "_citizenFullName",
          "type": "uint256"
        },
        {
          "internalType": "uint256",
          "name": "_citizenSsn",
          "type": "uint256"
        },
        {
          "internalType": "uint256",
          "name": "_citizenTin",
          "type": "uint256"
        },
        {
          "internalType": "uint256",
          "name": "_citizenDob",
          "type": "uint256"
        },
        {
          "internalType": "uint256",
          "name": "_citizenMobile",
          "type": "uint256"
        },
        {
          "internalType": "uint256",
          "name": "_citizenIdIssuedBy",
          "type": "uint256"
        },
        {
          "internalType": "uint256",
          "name": "_citizenIdHash",
          "type": "uint256"
        },
        {
          "internalType": "uint256",
          "name": "_requestStatus",
          "type": "uint256"
        },
        {
          "internalType": "string",
          "name": "_dateRequested",
          "type": "string"
        }
      ],
      "name": "sendRequest",
      "outputs": [],
      "stateMutability": "nonpayable",
      "type": "function"
    },
    {
      "inputs": [
        {
          "internalType": "address",
          "name": "_walletAddress",
          "type": "address"
        },
        {
          "internalType": "uint256",
          "name": "_requestNo",
          "type": "uint256"
        }
      ],
      "name": "viewRequestExpanded",
      "outputs": [
        {
          "internalType": "string",
          "name": "",
          "type": "string"
        },
        {
          "internalType": "address",
          "name": "",
          "type": "address"
        },
        {
          "internalType": "uint256",
          "name": "",
          "type": "uint256"
        },
        {
          "internalType": "uint256",
          "name": "",
          "type": "uint256"
        },
        {
          "internalType": "uint256",
          "name": "",
          "type": "uint256"
        },
        {
          "internalType": "uint256",
          "name": "",
          "type": "uint256"
        },
        {
          "internalType": "uint256",
          "name": "",
          "type": "uint256"
        },
        {
          "internalType": "uint256",
          "name": "",
          "type": "uint256"
        },
        {
          "internalType": "uint256",
          "name": "",
          "type": "uint256"
        },
        {
          "internalType": "uint256",
          "name": "",
          "type": "uint256"
        }
      ],
      "stateMutability": "view",
      "type": "function",
      "constant": true
    },
    {
      "inputs": [
        {
          "internalType": "address",
          "name": "_walletAddress",
          "type": "address"
        },
        {
          "internalType": "uint256",
          "name": "_requestNo",
          "type": "uint256"
        }
      ],
      "name": "viewRequestCollapsed",
      "outputs": [
        {
          "internalType": "string",
          "name": "",
          "type": "string"
        },
        {
          "internalType": "uint256",
          "name": "",
          "type": "uint256"
        },
        {
          "internalType": "string",
          "name": "",
          "type": "string"
        }
      ],
      "stateMutability": "view",
      "type": "function",
      "constant": true
    },
    {
      "inputs": [
        {
          "internalType": "address",
          "name": "_walletAddress",
          "type": "address"
        }
      ],
      "name": "requestLength",
      "outputs": [
        {
          "internalType": "uint256",
          "name": "",
          "type": "uint256"
        }
      ],
      "stateMutability": "view",
      "type": "function",
      "constant": true
    },
    {
      "inputs": [
        {
          "internalType": "address",
          "name": "_walletAddress",
          "type": "address"
        },
        {
          "internalType": "uint256",
          "name": "_requestNo",
          "type": "uint256"
        },
        {
          "internalType": "uint256",
          "name": "_citizenFullName",
          "type": "uint256"
        },
        {
          "internalType": "uint256",
          "name": "_citizenSsn",
          "type": "uint256"
        },
        {
          "internalType": "uint256",
          "name": "_citizenTin",
          "type": "uint256"
        },
        {
          "internalType": "uint256",
          "name": "_citizenDob",
          "type": "uint256"
        },
        {
          "internalType": "uint256",
          "name": "_citizenMobile",
          "type": "uint256"
        },
        {
          "internalType": "uint256",
          "name": "_citizenIdIssuedBy",
          "type": "uint256"
        },
        {
          "internalType": "uint256",
          "name": "_citizenIdHash",
          "type": "uint256"
        },
        {
          "internalType": "uint256",
          "name": "_requestStatus",
          "type": "uint256"
        }
      ],
      "name": "updateRequest",
      "outputs": [],
      "stateMutability": "nonpayable",
      "type": "function"
    }
  ],
  "bytecode": "0x608060405234801561001057600080fd5b5061177a806100206000396000f3fe608060405234801561001057600080fd5b50600436106100b45760003560e01c8063939124f711610071578063939124f7146101905780639a8d7294146101b95780639ecebe2a146101cc578063ba3e7aae146101f6578063d3707e8e14610209578063e61025cd1461021c57600080fd5b80630a777f23146100b95780630e0b26dc146100e157806334026dc41461010a578063526c0650146101385780638486f67a1461015a57806387709f061461017b575b600080fd5b6100cc6100c73660046111d8565b61023f565b60405190151581526020015b60405180910390f35b6100f46100ef3660046111fa565b610276565b6040516100d89a99989796959493929190611271565b61012a6101183660046111d8565b60026020526000908152604090205481565b6040519081526020016100d8565b61014b6101463660046111fa565b6104bf565b6040516100d8939291906112d4565b61016d6101683660046111d8565b6106c4565b6040516100d8929190611309565b61018e6101893660046113e1565b61084c565b005b61012a61019e3660046111d8565b6001600160a01b031660009081526001602052604090205490565b61018e6101c73660046114bd565b610a10565b6101df6101da3660046111fa565b610cdc565b6040516100d89b9a9998979695949392919061152c565b61018e6102043660046115a7565b610e76565b61018e610217366004611605565b610fa9565b61022f61022a3660046111d8565b610fd6565b6040516100d89493929190611667565b6001600160a01b038082166000818152602081905260408120549092160361026957506001919050565b506000919050565b919050565b6060600080600080600080600080600080600160008e6001600160a01b03166001600160a01b031681526020019081526020016000208c815481106102bd576102bd6116af565b90600052602060002090600b0201604051806101600160405290816000820180546102e7906116c5565b80601f0160208091040260200160405190810160405280929190818152602001828054610313906116c5565b80156103605780601f1061033557610100808354040283529160200191610360565b820191906000526020600020905b81548152906001019060200180831161034357829003601f168201915b505050918352505060018201546001600160a01b03166020820152600282015460408201526003820154606082015260048201546080820152600582015460a0820152600682015460c0820152600782015460e082015260088201546101008201526009820154610120820152600a82018054610140909201916103e3906116c5565b80601f016020809104026020016040519081016040528092919081815260200182805461040f906116c5565b801561045c5780601f106104315761010080835404028352916020019161045c565b820191906000526020600020905b81548152906001019060200180831161043f57829003601f168201915b5050505050815250509050806000015181602001518260400151836060015184608001518560a001518660c001518760e001518861010001518961012001519a509a509a509a509a509a509a509a509a509a50509295989b9194979a5092959850565b606060006060600060016000876001600160a01b03166001600160a01b0316815260200190815260200160002085815481106104fd576104fd6116af565b90600052602060002090600b020160405180610160016040529081600082018054610527906116c5565b80601f0160208091040260200160405190810160405280929190818152602001828054610553906116c5565b80156105a05780601f10610575576101008083540402835291602001916105a0565b820191906000526020600020905b81548152906001019060200180831161058357829003601f168201915b505050918352505060018201546001600160a01b03166020820152600282015460408201526003820154606082015260048201546080820152600582015460a0820152600682015460c0820152600782015460e082015260088201546101008201526009820154610120820152600a8201805461014090920191610623906116c5565b80601f016020809104026020016040519081016040528092919081815260200182805461064f906116c5565b801561069c5780601f106106715761010080835404028352916020019161069c565b820191906000526020600020905b81548152906001019060200180831161067f57829003601f168201915b5050509190925250508151610120830151610140909301519099929850965090945050505050565b6001600160a01b0380821660009081526020818152604080832081516080810190925280549094168152600184018054939460609486949192918401919061070b906116c5565b80601f0160208091040260200160405190810160405280929190818152602001828054610737906116c5565b80156107845780601f1061075957610100808354040283529160200191610784565b820191906000526020600020905b81548152906001019060200180831161076757829003601f168201915b505050918352505060028201546001600160a01b031660208201526003820180546040909201916107b4906116c5565b80601f01602080910402602001604051908101604052809291908181526020018280546107e0906116c5565b801561082d5780601f106108025761010080835404028352916020019161082d565b820191906000526020600020905b81548152906001019060200180831161081057829003601f168201915b5050505050815250509050806000015181602001519250925050915091565b600160008b6001600160a01b03166001600160a01b031681526020019081526020016000206040518061016001604052808e81526020018d6001600160a01b031681526020018b81526020018a81526020018981526020018881526020018781526020018681526020018581526020018481526020018381525090806001815401808255809150506001900390600052602060002090600b0201600090919091909150600082015181600001908051906020019061090b929190611128565b506020828101516001830180546001600160a01b0319166001600160a01b0390921691909117905560408301516002830155606083015160038301556080830151600483015560a0830151600583015560c0830151600683015560e0830151600783015561010083015160088301556101208301516009830155610140830151805161099d92600a8501920190611128565b5050604051600181527f1aa27be1ef91eecc7cde7d46499e18fa3c5f5baaa5e2c3bb507fd916e319fb0a915060200160405180910390a16001600160a01b038a1660009081526002602052604081208054600192906109fd908490611715565b9091555050505050505050505050505050565b6001600160a01b038a16600090815260016020526040902080548991908b908110610a3d57610a3d6116af565b90600052602060002090600b02016002018190555086600160008c6001600160a01b03166001600160a01b031681526020019081526020016000208a81548110610a8957610a896116af565b90600052602060002090600b02016003018190555085600160008c6001600160a01b03166001600160a01b031681526020019081526020016000208a81548110610ad557610ad56116af565b90600052602060002090600b02016004018190555084600160008c6001600160a01b03166001600160a01b031681526020019081526020016000208a81548110610b2157610b216116af565b90600052602060002090600b02016005018190555083600160008c6001600160a01b03166001600160a01b031681526020019081526020016000208a81548110610b6d57610b6d6116af565b90600052602060002090600b02016006018190555082600160008c6001600160a01b03166001600160a01b031681526020019081526020016000208a81548110610bb957610bb96116af565b90600052602060002090600b02016007018190555081600160008c6001600160a01b03166001600160a01b031681526020019081526020016000208a81548110610c0557610c056116af565b90600052602060002090600b02016008018190555080600160008c6001600160a01b03166001600160a01b031681526020019081526020016000208a81548110610c5157610c516116af565b90600052602060002090600b0201600901819055507f1aa27be1ef91eecc7cde7d46499e18fa3c5f5baaa5e2c3bb507fd916e319fb0a6001604051610c9a911515815260200190565b60405180910390a16001600160a01b038a166000908152600260205260408120805460019290610ccb90849061172d565b909155505050505050505050505050565b60016020528160005260406000208181548110610cf857600080fd5b90600052602060002090600b020160009150915050806000018054610d1c906116c5565b80601f0160208091040260200160405190810160405280929190818152602001828054610d48906116c5565b8015610d955780601f10610d6a57610100808354040283529160200191610d95565b820191906000526020600020905b815481529060010190602001808311610d7857829003601f168201915b5050505050908060010160009054906101000a90046001600160a01b03169080600201549080600301549080600401549080600501549080600601549080600701549080600801549080600901549080600a018054610df3906116c5565b80601f0160208091040260200160405190810160405280929190818152602001828054610e1f906116c5565b8015610e6c5780601f10610e4157610100808354040283529160200191610e6c565b820191906000526020600020905b815481529060010190602001808311610e4f57829003601f168201915b505050505090508b565b6001600160a01b0380841660008181526020819052604090205490911614610f7357604051600081527f1449a2d4ef90bf92e0e53cf7388679c245c8b4ecc816d28d47e8f899a855d26d9060200160405180910390a16001600160a01b03831660008181526020818152604090912080546001600160a01b03191690921782558351610f089260010191850190611128565b506001600160a01b038381166000908152602081815260409182902060020180546001600160a01b0319169385169390931790925551600181527f1aa27be1ef91eecc7cde7d46499e18fa3c5f5baaa5e2c3bb507fd916e319fb0a91015b60405180910390a1505050565b604051600181527f1449a2d4ef90bf92e0e53cf7388679c245c8b4ecc816d28d47e8f899a855d26d90602001610f66565b505050565b6001600160a01b0382166000908152602081815260409091208251610fa492600390920191840190611128565b600060208190529081526040902080546001820180546001600160a01b039092169291611002906116c5565b80601f016020809104026020016040519081016040528092919081815260200182805461102e906116c5565b801561107b5780601f106110505761010080835404028352916020019161107b565b820191906000526020600020905b81548152906001019060200180831161105e57829003601f168201915b505050600284015460038501805494956001600160a01b039092169491935091506110a5906116c5565b80601f01602080910402602001604051908101604052809291908181526020018280546110d1906116c5565b801561111e5780601f106110f35761010080835404028352916020019161111e565b820191906000526020600020905b81548152906001019060200180831161110157829003601f168201915b5050505050905084565b828054611134906116c5565b90600052602060002090601f016020900481019282611156576000855561119c565b82601f1061116f57805160ff191683800117855561119c565b8280016001018555821561119c579182015b8281111561119c578251825591602001919060010190611181565b506111a89291506111ac565b5090565b5b808211156111a857600081556001016111ad565b80356001600160a01b038116811461027157600080fd5b6000602082840312156111ea57600080fd5b6111f3826111c1565b9392505050565b6000806040838503121561120d57600080fd5b611216836111c1565b946020939093013593505050565b6000815180845260005b8181101561124a5760208185018101518683018201520161122e565b8181111561125c576000602083870101525b50601f01601f19169290920160200192915050565b60006101408083526112858184018e611224565b6001600160a01b039c909c166020840152505060408101989098526060880196909652608087019490945260a086019290925260c085015260e084015261010083015261012090910152919050565b6060815260006112e76060830186611224565b84602084015282810360408401526112ff8185611224565b9695505050505050565b6001600160a01b038316815260406020820181905260009061132d90830184611224565b949350505050565b634e487b7160e01b600052604160045260246000fd5b600067ffffffffffffffff8084111561136657611366611335565b604051601f8501601f19908116603f0116810190828211818310171561138e5761138e611335565b816040528093508581528686860111156113a757600080fd5b858560208301376000602087830101525050509392505050565b600082601f8301126113d257600080fd5b6111f38383356020850161134b565b6000806000806000806000806000806000806101808d8f03121561140457600080fd5b67ffffffffffffffff8d35111561141a57600080fd5b6114278e8e358f016113c1565b9b5061143560208e016111c1565b9a5061144360408e016111c1565b995060608d0135985060808d0135975060a08d0135965060c08d0135955060e08d013594506101008d013593506101208d013592506101408d0135915067ffffffffffffffff6101608e0135111561149a57600080fd5b6114ab8e6101608f01358f016113c1565b90509295989b509295989b509295989b565b6000806000806000806000806000806101408b8d0312156114dd57600080fd5b6114e68b6111c1565b9c60208c01359c5060408c01359b60608101359b5060808101359a5060a0810135995060c0810135985060e0810135975061010081013596506101200135945092505050565b60006101608083526115408184018f611224565b905060018060a01b038d1660208401528b60408401528a60608401528960808401528860a08401528760c08401528660e084015285610100840152846101208401528281036101408401526115958185611224565b9e9d5050505050505050505050505050565b6000806000606084860312156115bc57600080fd5b6115c5846111c1565b9250602084013567ffffffffffffffff8111156115e157600080fd5b6115ed868287016113c1565b9250506115fc604085016111c1565b90509250925092565b6000806040838503121561161857600080fd5b611621836111c1565b9150602083013567ffffffffffffffff81111561163d57600080fd5b8301601f8101851361164e57600080fd5b61165d8582356020840161134b565b9150509250929050565b600060018060a01b038087168352608060208401526116896080840187611224565b818616604085015283810360608501526116a38186611224565b98975050505050505050565b634e487b7160e01b600052603260045260246000fd5b600181811c908216806116d957607f821691505b6020821081036116f957634e487b7160e01b600052602260045260246000fd5b50919050565b634e487b7160e01b600052601160045260246000fd5b60008219821115611728576117286116ff565b500190565b60008282101561173f5761173f6116ff565b50039056fea26469706673582212200c8102af00d502d1cc9501c26962312e260d885119b44c3222a15bbd5ef8b41c64736f6c634300080d0033",
  "immutableReferences": {},
  "source": "// SPDX-License-Identifier: MIT\npragma solidity ^0.8.13;\n\n//import \"./Ownable.sol\";\n\ncontract Verifier {\n\n    //Structs\n    struct Hospital {\n        address hospitalAddress;\n        string hospitalName;\n        address issuer;\n        bytes hospitalHash;\n    }\n\n    struct Request {\n        string requestedByName;\n        address requestedByAddress;\n        uint citizenFullName;\n        uint citizenSsn;\n        uint citizenTin;\n        uint citizenDob;\n        uint citizenMobile;\n        uint citizenIdIssuedBy;\n        uint citizenIdHash;\n        uint requestStatus; //1 Waiting Approval - 2 Partially Approved - 3 Approved - 4 Rejected\n        string dateRequested;\n    }\n\n    //Mappings\n    mapping(address => Hospital) public hospitalList;\n    mapping(address => Request[]) public requests;\n    mapping(address => uint) public requestsWaiting;\n\n    //Events\n    event IsSuccessful(bool result);\n    event AddressExists(bool exists);\n    \n    //Hospital Functions\n    function addHospital(address _hospitalAddress, string memory _hospitalName, address _issuer) public {\n        if (hospitalList[_hospitalAddress].hospitalAddress != _hospitalAddress) {\n            emit AddressExists(false);\n            hospitalList[_hospitalAddress].hospitalAddress = _hospitalAddress;\n            hospitalList[_hospitalAddress].hospitalName = _hospitalName;\n            hospitalList[_hospitalAddress].issuer = _issuer;\n            emit IsSuccessful(true); \n        } else {\n            emit AddressExists(true);\n        }      \n    }\n\n    function setHospitalHash(address _hospitalAddress, bytes memory _hospitalHash) public {\n        hospitalList[_hospitalAddress].hospitalHash = _hospitalHash;\n    }\n\n    function getHospitalInfo(address  _hospitalAddress) public view returns(address, string memory) {\n        Hospital memory thisHospital = hospitalList[_hospitalAddress];\n        return (thisHospital.hospitalAddress, thisHospital.hospitalName);\n    }\n\n    function hospitalExists(address _hospitalAddress) public view returns(bool) {\n        if(hospitalList[_hospitalAddress].hospitalAddress == _hospitalAddress) {\n            return true;\n        } else {\n            return false;\n        }\n    }\n\n    //Request Functions\n    function sendRequest(string memory _requestedByName, address _requestedByAddress, address _walletAddress, uint _citizenFullName, uint _citizenSsn, uint _citizenTin, uint _citizenDob, uint _citizenMobile, uint _citizenIdIssuedBy, uint _citizenIdHash, uint _requestStatus, string memory _dateRequested) public {\n        requests[_walletAddress].push(Request(_requestedByName, _requestedByAddress, _citizenFullName, _citizenSsn, _citizenTin, _citizenDob, _citizenMobile, _citizenIdIssuedBy, _citizenIdHash, _requestStatus, _dateRequested));\n        emit IsSuccessful(true);\n        requestsWaiting[_walletAddress] += 1;\n    }\n\n    function viewRequestExpanded(address _walletAddress, uint _requestNo) public view  returns (string memory, address, uint, uint, uint, uint, uint, uint, uint, uint) {\n        Request memory thisRequest = requests[_walletAddress][_requestNo];\n        return (thisRequest.requestedByName, thisRequest.requestedByAddress, thisRequest.citizenFullName, thisRequest.citizenSsn, thisRequest.citizenTin, thisRequest.citizenDob, thisRequest.citizenMobile, thisRequest.citizenIdIssuedBy, thisRequest.citizenIdHash, thisRequest.requestStatus);\n    }\n\n    function viewRequestCollapsed(address _walletAddress, uint _requestNo) public view returns (string memory, uint, string memory) {\n        Request memory thisRequest = requests[_walletAddress][_requestNo];\n        return (thisRequest.requestedByName, thisRequest.requestStatus, thisRequest.dateRequested);\n    }\n\n    function requestLength(address _walletAddress) public view returns(uint) {\n        return requests[_walletAddress].length;\n    }\n\n    function updateRequest(address _walletAddress, uint _requestNo, uint _citizenFullName, uint _citizenSsn, uint _citizenTin, uint _citizenDob, uint _citizenMobile, uint _citizenIdIssuedBy, uint _citizenIdHash, uint _requestStatus) public {\n        requests[_walletAddress][_requestNo].citizenFullName = _citizenFullName;\n        requests[_walletAddress][_requestNo].citizenSsn = _citizenSsn;\n        requests[_walletAddress][_requestNo].citizenTin = _citizenTin;\n        requests[_walletAddress][_requestNo].citizenDob = _citizenDob;\n        requests[_walletAddress][_requestNo].citizenMobile = _citizenMobile;\n        requests[_walletAddress][_requestNo].citizenIdIssuedBy = _citizenIdIssuedBy;\n        requests[_walletAddress][_requestNo].citizenIdHash = _citizenIdHash;\n        requests[_walletAddress][_requestNo].requestStatus = _requestStatus;\n        emit IsSuccessful(true);\n        requestsWaiting[_walletAddress] -= 1;\n    }\n}",
  "sourcePath": "/Users/tokristo/Documents/Node/  /authentication/contracts/Verifier.sol",
  "compiler": {
    "name": "solc",
    "version": "0.8.13+commit.abaa5c0e.Emscripten.clang"
  },
  "schemaVersion": "3.4.6",
  "updatedAt": "2022-06-10T11:12:48.953Z",
  "networkType": "ethereum",
  "devdoc": {
    "kind": "dev",
    "methods": {},
    "version": 1
  },
  "userdoc": {
    "kind": "user",
    "methods": {},
    "version": 1
  }
}