{
  "contractName": "ViewPerson",
  "abi": [
    {
      "inputs": [
        {
          "internalType": "address",
          "name": "_contractAddress",
          "type": "address"
        }
      ],
      "stateMutability": "nonpayable",
      "type": "constructor"
    },
    {
      "anonymous": false,
      "inputs": [
        {
          "indexed": false,
          "internalType": "bool",
          "name": "result",
          "type": "bool"
        }
      ],
      "name": "IsRegistered",
      "type": "event"
    },
    {
      "inputs": [
        {
          "internalType": "address",
          "name": "",
          "type": "address"
        }
      ],
      "name": "person",
      "outputs": [
        {
          "internalType": "address",
          "name": "walletAddress",
          "type": "address"
        },
        {
          "internalType": "string",
          "name": "fullName",
          "type": "string"
        },
        {
          "internalType": "uint256",
          "name": "amka",
          "type": "uint256"
        },
        {
          "internalType": "uint256",
          "name": "afm",
          "type": "uint256"
        },
        {
          "internalType": "string",
          "name": "dob",
          "type": "string"
        },
        {
          "internalType": "uint256",
          "name": "mobile",
          "type": "uint256"
        },
        {
          "internalType": "string",
          "name": "email",
          "type": "string"
        },
        {
          "internalType": "string",
          "name": "homeAddress",
          "type": "string"
        },
        {
          "internalType": "address",
          "name": "issuedBy",
          "type": "address"
        },
        {
          "internalType": "bytes",
          "name": "idHash",
          "type": "bytes"
        }
      ],
      "stateMutability": "view",
      "type": "function",
      "constant": true
    },
    {
      "inputs": [],
      "name": "getInfo",
      "outputs": [],
      "stateMutability": "nonpayable",
      "type": "function"
    }
  ],
  "bytecode": "0x608060405234801561001057600080fd5b50604051610def380380610def83398101604081905261002f91610054565b600080546001600160a01b0319166001600160a01b0392909216919091179055610084565b60006020828403121561006657600080fd5b81516001600160a01b038116811461007d57600080fd5b9392505050565b610d5c806100936000396000f3fe608060405234801561001057600080fd5b50600436106100365760003560e01c80635a9b0b891461003b578063b7e4b26514610045575b600080fd5b610043610077565b005b610058610053366004610ab8565b6106f8565b60405161006e9a99989796959493929190610b38565b60405180910390f35b60005460405163ae22c57d60e01b81523360048201819052916001600160a01b03169063ae22c57d90602401602060405180830381865afa1580156100c0573d6000803e3d6000fd5b505050506040513d601f19601f820116820180604052508101906100e49190610bdb565b6001600160a01b0316036106c75760005460405163ae22c57d60e01b81523360048201526001600160a01b039091169063ae22c57d90602401602060405180830381865afa15801561013a573d6000803e3d6000fd5b505050506040513d601f19601f8201168201806040525081019061015e9190610bdb565b3360008181526001602052604080822080546001600160a01b0319166001600160a01b039586161790559054905163f2f35ff560e01b815260048101929092529091169063f2f35ff590602401600060405180830381865afa1580156101c8573d6000803e3d6000fd5b505050506040513d6000823e601f3d908101601f191682016040526101f09190810190610c82565b33600090815260016020818152604090922083516102149491909201920190610a07565b506000546040516380d07b7160e01b81523360048201526001600160a01b03909116906380d07b7190602401602060405180830381865afa15801561025d573d6000803e3d6000fd5b505050506040513d601f19601f820116820180604052508101906102819190610cd3565b336000818152600160205260408082206002019390935554915163590d502f60e11b815260048101919091526001600160a01b039091169063b21aa05e90602401602060405180830381865afa1580156102df573d6000803e3d6000fd5b505050506040513d601f19601f820116820180604052508101906103039190610cd3565b33600081815260016020526040808220600301939093555491516302ec9b6760e51b815260048101919091526001600160a01b0390911690635d936ce090602401600060405180830381865afa158015610361573d6000803e3d6000fd5b505050506040513d6000823e601f3d908101601f191682016040526103899190810190610c82565b33600090815260016020908152604090912082516103b1936004909201929190910190610a07565b5060005460405163f9980e0d60e01b81523360048201526001600160a01b039091169063f9980e0d90602401602060405180830381865afa1580156103fa573d6000803e3d6000fd5b505050506040513d601f19601f8201168201806040525081019061041e9190610cd3565b33600081815260016020526040808220600501939093555491516313e9cd4f60e21b815260048101919091526001600160a01b0390911690634fa7353c90602401600060405180830381865afa15801561047c573d6000803e3d6000fd5b505050506040513d6000823e601f3d908101601f191682016040526104a49190810190610c82565b33600090815260016020908152604090912082516104cc936006909201929190910190610a07565b50600054604051638a99ee2b60e01b81523360048201526001600160a01b0390911690638a99ee2b90602401600060405180830381865afa158015610515573d6000803e3d6000fd5b505050506040513d6000823e601f3d908101601f1916820160405261053d9190810190610c82565b3360009081526001602090815260409091208251610565936007909201929190910190610a07565b5060005460405163fef03da360e01b81523360048201526001600160a01b039091169063fef03da390602401602060405180830381865afa1580156105ae573d6000803e3d6000fd5b505050506040513d601f19601f820116820180604052508101906105d29190610bdb565b3360008181526001602052604080822060080180546001600160a01b0319166001600160a01b039586161790559054905163f9c78dc760e01b815260048101929092529091169063f9c78dc790602401600060405180830381865afa15801561063f573d6000803e3d6000fd5b505050506040513d6000823e601f3d908101601f191682016040526106679190810190610c82565b336000908152600160209081526040909120825161068f936009909201929190910190610a07565b50604051600181527fce431491f60e73a625c83cc8df4b6b0efc841adccb7b6e8ed73da8b9b677414c906020015b60405180910390a1565b604051600081527fce431491f60e73a625c83cc8df4b6b0efc841adccb7b6e8ed73da8b9b677414c906020016106bd565b6001602081905260009182526040909120805491810180546001600160a01b039093169261072590610cec565b80601f016020809104026020016040519081016040528092919081815260200182805461075190610cec565b801561079e5780601f106107735761010080835404028352916020019161079e565b820191906000526020600020905b81548152906001019060200180831161078157829003601f168201915b5050505050908060020154908060030154908060040180546107bf90610cec565b80601f01602080910402602001604051908101604052809291908181526020018280546107eb90610cec565b80156108385780601f1061080d57610100808354040283529160200191610838565b820191906000526020600020905b81548152906001019060200180831161081b57829003601f168201915b50505050509080600501549080600601805461085390610cec565b80601f016020809104026020016040519081016040528092919081815260200182805461087f90610cec565b80156108cc5780601f106108a1576101008083540402835291602001916108cc565b820191906000526020600020905b8154815290600101906020018083116108af57829003601f168201915b5050505050908060070180546108e190610cec565b80601f016020809104026020016040519081016040528092919081815260200182805461090d90610cec565b801561095a5780601f1061092f5761010080835404028352916020019161095a565b820191906000526020600020905b81548152906001019060200180831161093d57829003601f168201915b505050600884015460098501805494956001600160a01b0390921694919350915061098490610cec565b80601f01602080910402602001604051908101604052809291908181526020018280546109b090610cec565b80156109fd5780601f106109d2576101008083540402835291602001916109fd565b820191906000526020600020905b8154815290600101906020018083116109e057829003601f168201915b505050505090508a565b828054610a1390610cec565b90600052602060002090601f016020900481019282610a355760008555610a7b565b82601f10610a4e57805160ff1916838001178555610a7b565b82800160010185558215610a7b579182015b82811115610a7b578251825591602001919060010190610a60565b50610a87929150610a8b565b5090565b5b80821115610a875760008155600101610a8c565b6001600160a01b0381168114610ab557600080fd5b50565b600060208284031215610aca57600080fd5b8135610ad581610aa0565b9392505050565b60005b83811015610af7578181015183820152602001610adf565b83811115610b06576000848401525b50505050565b60008151808452610b24816020860160208601610adc565b601f01601f19169290920160200192915050565b6001600160a01b038b8116825261014060208301819052600091610b5e8483018e610b0c565b91508b60408501528a60608501528382036080850152610b7e828b610b0c565b91508860a085015283820360c0850152610b988289610b0c565b915083820360e0850152610bac8288610b0c565b9086166101008501528381036101208501529050610bca8185610b0c565b9d9c50505050505050505050505050565b600060208284031215610bed57600080fd5b8151610ad581610aa0565b634e487b7160e01b600052604160045260246000fd5b600067ffffffffffffffff80841115610c2957610c29610bf8565b604051601f8501601f19908116603f01168101908282118183101715610c5157610c51610bf8565b81604052809350858152868686011115610c6a57600080fd5b610c78866020830187610adc565b5050509392505050565b600060208284031215610c9457600080fd5b815167ffffffffffffffff811115610cab57600080fd5b8201601f81018413610cbc57600080fd5b610ccb84825160208401610c0e565b949350505050565b600060208284031215610ce557600080fd5b5051919050565b600181811c90821680610d0057607f821691505b602082108103610d2057634e487b7160e01b600052602260045260246000fd5b5091905056fea2646970667358221220cd2c9b67541bdb892face44bcfb08322575757b5c6c84a7adc85b496d5c429dc64736f6c634300080d0033",
  "immutableReferences": {},
  "source": "// SPDX-License-Identifier: MIT\npragma solidity ^0.8.13;\n\nimport \"./Issuer.sol\";\n\ncontract ViewPerson {\n\n    Issuer i;\n\n    constructor(address _contractAddress){\n        i =  Issuer(_contractAddress);\n    }\n\n    struct Person {\n        address walletAddress;\n        string fullName;\n        uint amka;\n        uint afm;\n        string dob;\n        uint mobile;\n        string email;       \n        string homeAddress;\n        address issuedBy;\n        bytes idHash;\n    }  \n\n    mapping(address => Person) public person;\n    event IsRegistered(bool result);\n\n    function getInfo() public{\n       // Issuer i = Issuer(_contractAddress);\n        if(i.getAddress(msg.sender) == msg.sender) {\n        person[msg.sender].walletAddress = i.getAddress(msg.sender);\n        person[msg.sender].fullName = i.getFullName(msg.sender);\n        person[msg.sender].amka = i.getAmka(msg.sender);\n        person[msg.sender].afm = i.getAfm(msg.sender);\n        person[msg.sender].dob = i.getDob(msg.sender);\n        person[msg.sender].mobile = i.getMobile(msg.sender);\n        person[msg.sender].email = i.getEmail(msg.sender);\n        person[msg.sender].homeAddress = i.getHomeAddress(msg.sender);\n        person[msg.sender].issuedBy = i.getIssuer(msg.sender);\n        person[msg.sender].idHash = i.getIdHash(msg.sender);\n            emit IsRegistered(true);\n        } else {\n            emit IsRegistered(false);\n        }\n    }\n\n    // function personInfo(address _contractAddress) public view returns (address, string memory, uint, uint, uint, string memory, string memory, string memory, address) {\n    //     Issuer i = Issuer(_contractAddress);\n    //     return i.viewPerson(msg.sender);\n    // }\n\n    \n\n        \n}",
  "sourcePath": "/Users/tokristo/Documents/Node/authentication/contracts/ViewPerson.sol",
  "compiler": {
    "name": "solc",
    "version": "0.8.13+commit.abaa5c0e.Emscripten.clang"
  },
  "schemaVersion": "3.4.6",
  "updatedAt": "2022-04-17T18:04:32.269Z",
  "networkType": "ethereum",
  "devdoc": {
    "kind": "dev",
    "methods": {},
    "version": 1
  },
  "userdoc": {
    "kind": "user",
    "methods": {},
    "version": 1
  }
}